S014000054696D6553796E634D6265642E737265636C
S1130000008000204D3C0000493C0000493C0000B9
S113001000000000000000000000000000000000DC
S1130020000000000000000000000000F50E0000C9
S11300300000000000000000610F0000A50F000098
S1130040493C0000493C0000493C000019160000EE
S11300500D3D0000493C0000493C00000000000048
S1130060493C0000493C0000493C0000493C000078
S1130070493C00000000000000000000493C000072
S1130080493C0000493C0000C55E0000D15E000010
S1130090DD5E000000000000000000000000000021
S11300A0000000000000000000000000493C0000C7
S11300B00000000010B5064C2378002B07D1054B37
S11300C0002B02D0044800E000BF0123237010BDC0
S11300D07401002000000000E8F9000008B5084B96
S11300E0002B03D00748084900E000BF0748036815
S11300F0002B00D108BD064B002BFBD09847F9E735
S113010000000000E8F9000078010020E8F9000090
S11301100000000010B5041C036C002B08D1036818
S1130120002B26D14068154B98470023636020E0DC
S1130130002A0ED180681A1C114B9847A368226CC0
S113014094466344A3606268934212D32368A36015
S11301500FE0C0681A1C0A4B9847236C5B42E268A4
S1130160D218E26021688A4203D2626894466344EA
S1130170E360A36B0133A36310BDC0466D0E0000A2
S11301806B9A000038B50468002C0CD0026CC3686C
S11301909B18C3604568AB4200D3C4600B1CC168A4
S11301A0181C014B984738BD6B9A0000F8B5041C25
S11301B0214B9847A36C002B16DD636A002B04D1F6
S11301C012E0636A002B04D10EE0251C24351B4F7A
S11301D01B4E281CB847002800D0B047A36C013B35
S11301E0A364A36C002BECDC01235B42A364154BDA
S11301F09847114B9847636C002B16DD2369002B3D
S113020004D112E02369002B04D10EE0251C103523
S11302100A4F0B4E281CB847002800D0B047636C27
S1130220013B6364636C002BECDC01235B4263647D
S1130230044B9847F8BDC046350F0000CD0C0000B4
S1130240D90D00004D0F000038B5002801D172B659
S1130250FEE70D1C041C154B98472268216CE36BC8
S11302604B43D01860600020A063A2605B1AD318CF
S1130270E36001235B426364A364002D0BD1236913
S1130280002B0FD0201C1030094B9847012809D1AE
S1130290084B984706E0201C1030074DA847201C47
S11302A02430A847054B9847012038BD350F00007E
S11302B0CD0C00001D0F0000110600004D0F0000C2
S11302C070B5002813D00E1C051C4C200D4B98470C
S11302D0041E0CD0301C684301300A4B9847206040
S11302E0002806D1201C084B984700E0FEE772B6B0
S11302F0FCE7E5632664201C0121044B9847201C7D
S113030070BDC04629100000911000004902000091
S1130310F0B5574680B486B00392002801D172B676
S1130320FEE70027002905D1026C002A01D072B62D
S1130330FEE7002702930191041C334DA847A36BE9
S1130340E26B934213D2201C0199029A2F4B9847D7
S1130350636A002B07D0201C24302D4B98470128BA
S113036001D12C4B98472C4B9847012048E0039B24
S1130370002B03D1284B9847002041E0002F03D1E4
S113038004A8264B98470137234B9847244B98479A
S11303901D4B9847636C013301D100236364A36C44
S11303A0013301D10023A3641B4B984704A803A97C
S11303B01C4B984700281DD1134B9847A36B9A46B2
S11303C0E66B154B9847B2450ED1201C10300399AB
S11303D0154B9847201C154B9847154B98470028F8
S11303E0ACD10C4B9847A9E7201C104B9847104BF5
S11303F09847A3E7201C0D4B98470D4B98470020C6
S113040006B004BC9246F0BD350F00001501000093
S1130410CD0C00001D0F00004D0F0000490D000021
S113042055090000690D00008D0C0000AD010000AD
S1130430A10A000070B5002801D172B6FEE70029B8
S113044004D1046C002C01D072B6FEE772B6846B42
S11304500025C66BB4421CD2161C041C1A1C0E4B7D
S11304609847A36C01330ED1636A0135002B10D079
S1130470201C2430094B984700280AD0002E07D0AE
S11304800123336005E0A36C0133A364012500E07C
S1130490012562B6281C70BD15010000CD0C0000BA
S11304A0F0B54F4680B484B00192002801D172B6F1
S11304B0FEE70027002905D1026C002A01D072B69C
S11304C0FEE700271D1C0091041C444EB047A36B9B
S11304D0002B2BD0E768201C0099414B9847002D36
S11304E014D1A36B013BA3632368002B02D13D4BC2
S11304F0984760602369002B14D0201C10303A4BBD
S1130500984701280ED1394B98470BE0E760636A9E
S1130510002B07D0201C2430334B9847002801D0EF
S1130520324B9847324B9847012052E0019B002BF5
S113053003D12F4B984700204BE0002F03D102A892
S11305402C4B984701372A4B98472B4B9847234B02
S11305509847636C013301D100236364A36C0133B6
S113056001D10023A364224B984702A801A9234B7D
S11305709847002827D1194B9847A36B99461C4BE1
S113058098474B46002B18D12368002B06D1134BF8
S1130590984760681A4B9847154B9847201C24309D
S11305A00199184B9847201C174B9847174B9847AD
S11305B000288BD10D4B984788E7201C124B984795
S11305C0124B984782E7201C0F4B98470F4B9847D4
S11305D0002004B004BC9146F0BDC046350F0000B5
S11305E085010000E50D0000CD0C00001D0F00008A
S11305F04D0F0000490D000055090000690D000071
S1130600F10D00008D0C0000AD010000A10A0000F6
S1130610031C08334360012252428260C3600361B9
S1130620002303607047C046002303617047C0463F
S113063043685A684A6042688A605A68916059609F
S113064041600861036801330360704710B50C68AA
S1130650631C01D103690AE0031C0833C2681268F1
S1130660944204D35B685A6812689442FAD25A6876
S11306704A6091608B6059600861036801330360CC
S113068010BDC046436882689A60836842685A60B5
S113069003695A68824201D182685A600022026169
S11306A01A68013A1A6018687047C04610B5014CC0
S11306B0A047FDE71D0F000010B5041E0E4B1B687C
S11306C058600E4B1B689C4207D20D4B18680A4BAE
S11306D0196804310B4B98470CE00B4B1868064B18
S11306E019680431074B9847084B1B689C4201D298
S11306F0064B1C6010BDC04630020020480200209A
S11307004C0200204D06000094010020B40000209B
S1130710F0B54F464646C0B485B00C9C002801D1C4
S113072072B6FEE7052C01D972B6FEE70393161CD8
S11307300F1C02904020594B9847051E00D1A5E09C
S11307400E9B002B00D09DE0B000544B98472863CB
S1130750002803D1281C524B984797E0B200A521EA
S1130760504B9847504BF3189B002A6B94466344B4
S1130770072293439846281C3430391C01324B4BD2
S1130780984700223B23EA54271E052F00D905274A
S1130790EF62EF632B1D0193181C454EB047281CD4
S11307A01830B0472D610623DB1BAB616D624046F8
S11307B00299039A3F4B98472860430701D072B6C9
S11307C0FEE70D9B002B00D01D603B4B98473B4A36
S11307D01368013313603A4B1B68002B1ED1384B4E
S11307E01D601368012B24D1364E77339946B144EA
S11307F0354F301CB84714364E45FAD1334B994621
S1130800181C314EB047324F381CB0473148B047FE
S1130810314B4A461A60314B1F600AE0304B1B686B
S1130820002B06D1264B1B68DB6A9C4201D3244B68
S11308301D60EB6A2B4A1268934201D9294A13605E
S113084029490A6801320A60284A1268934201D988
S1130850264A13609800C3189B001A48C0180199CF
S1130860234B9847234B98471D4B1B680120002BB3
S11308700ED0134B1B68DB6A9C4209D91E4B984768
S1130880012005E00E9B0363181C67E7012040422A
S113089005B00CBC90469946F0BDC0462910000036
S11308A0911000007D9A0000FFFFFF3F07B2000097
S11308B029060000DD0E0000350F00007002002044
S11308C030020020B401002011060000580200206C
S11308D0A001002034020020940100204C020020DA
S11308E098010020740200205402002050020020CD
S11308F0310600004D0F00001D0F000010B584B03C
S1130900002300930193029303930C480C4996220D
S113091052000C4CA047012809D172B601220A4B9F
S11309201A600022094B1A60094B984703E000281B
S113093001D172B6FEE704B010BDC046AD0600009A
S1130940A4E60000110700009801002048020020DE
S1130950ED0F0000024A1368013313607047C0466C
S11309602C02002010B5044B9847044B1C68044B20
S11309709847201C10BDC046350F000048020020D7
S11309804D0F0000F8B53B4B1B68002B6DD13A4B63
S11309901A6801321A601B68002B20D1374B1B6880
S11309A01B68002B01D072B6FEE7344B1968344A39
S11309B010681860116033490A6801320A601B68C4
S11309C01B68002B04D1012252422F4B1A6006E00F
S11309D02A4B1B68DB68DB685A682B4B1A60264B72
S11309E01A68294B1B689A4243D3244B1B681B6823
S11309F0002B0BD0214B1B68DB68DD686B681E4A3B
S1130A001268934210D8214F214E10E00122524225
S1130A101D4B1A602DE0194B1B68DB68DD686B68A1
S1130A20154A1268934202D9174A136021E02C1D1B
S1130A30201CB847AB6A002B03D0281C1830134B7A
S1130A409847EB6A3268934201D9114A13609800BF
S1130A50C3189B000F48C018211C0F4B9847074B25
S1130A601B681B68002BD6D1D0E70C4A13680133EE
S1130A701360F8BD2C0200204802002094010020DD
S1130A804C0200209C010020B400002085060000D8
S1130A9050020020B4010020310600009001002023
S1130AA0F8B52F4B1B68002B01D172B6FEE72D4B16
S1130AB098472B4B1A68013A1A601B680024002BD4
S1130AC049D1294B1B680026002B22D143E0274B38
S1130AD0DB68DF68381C1830254B98473D1D281CFF
S1130AE0234B9847FB6A234A1268934201D9214A4F
S1130AF013609800C3189B001F48C018291C1F4B83
S1130B0098471F4B1B68FA6ADB6A9A4202D3012694
S1130B1000E0164C2368002BD9D11A4B1B68002B1C
S1130B200CD0184B1B68002B08D0174D154CA84748
S1130B302368013B23602368002BF8D1012E04D0E5
S1130B40124B1B680024012B05D100220F4B1A60A5
S1130B500F4B984701240F4B9847201CF8BDC04603
S1130B602C020020350F0000700200203402002007
S1130B708506000050020020B40100203106000068
S1130B803002002090010020850900006C02002042
S1130B901D0F00004D0F000010B5041E10D00A4BAD
S1130BA098470A4B1B68E418094B18680430094B32
S1130BB09847201C084B9847084B9847002801D1B8
S1130BC0074B984710BDC046550900004802002055
S1130BD03002002085060000B9060000A10A0000CA
S1130BE01D0F000010B5244B1B68002B10D1234BA4
S1130BF01B689A00D3189B00214A9B58002B1AD1DA
S1130C001E4B1B68002B0AD01C4A1D4C101C08E00C
S1130C1001221C4B1A602DE00368002B01D172B62F
S1130C20FEE71368013B136013689900CB189B001F
S1130C301B59002BF0D0114B1B68114C9A00D11892
S1130C4089006118486840684860D21892000832E8
S1130C50A218904205D141689A00D2189200A218B5
S1130C6051609A00D3189B00054AD3185B68DA6870
S1130C70054B1A6010BDC0462C0200205002002013
S1130C80B40100206C0200203002002038B5002896
S1130C9001D172B6FEE70C1C074D29681831074BC9
S1130CA0984728680430064B9847064B1868201864
S1130CB0054B984738BDC046300200204D06000061
S1130CC08506000048020020B906000038B5C36854
S1130CD0DD68002D01D172B6FEE72C1C1834201CEF
S1130CE0124B9847124B1B68002B13D12C1D201C50
S1130CF00E4B9847EB6A0F4A1268934201D90D4A8A
S1130D0013609800C3189B000B48C018211C0B4BA0
S1130D10984703E00A48211C084B9847094B1B6875
S1130D20EA6ADB6A00209A42404138BD8506000029
S1130D302C02002050020020B401002031060000E3
S1130D403402002030020020002801D172B6FEE7F0
S1130D50034B1B680360034B1B6843607047C0462A
S1130D609C0100204802002070B5002801D172B611
S1130D70FEE7002901D172B6FEE70D1C041C114BDD
S1130D809847114B1B6822689A4205D00F4B1B6889
S1130D90012662689A4210D90C4B196860682B6866
S1130DA0091A0126994208D2084A1268121A9B1A93
S1130DB02B60201C064B98470026064B9847301C96
S1130DC070BDC046350F00009C0100204802002081
S1130DD0490D00004D0F00000122014B1A607047BD
S1130DE06C020020014B18687047C0463002002096
S1130DF038B500282FD0C36A174A1268D26A9342C2
S1130E0029D2154A1268D16A0622521A82619A00BE
S1130E10D3189B00114AD31842699A4217D1051C72
S1130E20041D201C0E4B98470B4B1B68DB6AEB62BE
S1130E300C4A1268934201D90A4A13609800C018F8
S1130E4083000648C018211C074B984703E0024B57
S1130E501B68DB6AC36238BD30020020B401002085
S1130E6085060000500200203106000038B5002835
S1130E701BD0C36AC26B934217D0041C051D281CE7
S1130E800A4B9847E36BE3620622D21AA261084A2E
S1130E901268934201D9064A13609800C01883006F
S1130EA00448C018291C044B984738BD8506000027
S1130EB050020020B401002031060000064A1368E5
S1130EC01868203080F30988022080F314883FBC1E
S1130ED0AE4662B600BDC0463002002010B5031F06
S1130EE0802464041C60043B1960183B1A60403879
S1130EF010BDC046084B196808681030F0C8A046F9
S1130F00A946B246BB4680F309882038F0C871462A
S1130F100D2001430847C0463002002080225205BC
S1130F20034B1A60BFF34F8FBFF36F8F7047C046F8
S1130F3004ED00E072B6044A136801331360BFF392
S1130F404F8FBFF36F8F7047B8000020034A1368B8
S1130F50013B1360002B00D162B67047B80000203B
S1130F60EFF309800E4B1A6820381060F0C0444635
S1130F704D4656465F46F0C008B572B6FFF732FEDE
S1130F8062B60CBC116808681030F0C8A046A946C7
S1130F90B246BB4680F309882038F0C81847C046DB
S1130FA03002002008B572B6014B984762B608BDFE
S1130FB08509000008B50022074B1A600020074B82
S1130FC09847FA218900064B98470138054B186069
S1130FD00722054B1A6008BD18E000E01D40000020
S1130FE0AD62000014E000E010E000E008B50A4B38
S1130FF01A68FF2109040A431A601A68FF210906C6
S11310000A431A60054B98470022054B1A60054BAA
S11310109847002008BDC04620ED00E0B50F000051
S1131020B8000020BD0E000038B5041C430702D0F0
S113103007239C430834104B9847104B1B68002B24
S113104005D107220E4B083393430C4A13600D4B12
S11310501B68E4180C4A944207D8A34207D2074AF3
S11310601568ED18074B1C6002E0002500E0002520
S1131070064B9847281C38BD55090000143D002034
S11310807C020020780200208F3A0000A10A0000B0
S1131090002801D072B6FEE77047C04682B084B023
S11310A00190029103920593019A059B01209A42B3
S11310B009D8019A059B00209A4204D30298069B02
S11310C083428041404204B002B0704784B0019131
S11310D00292039300230360436001330372059972
S11310E0019A049BD21A0260029B5B1A0BD5026818
S11310F0002A09D00268013A0260FA22D201944619
S11311006344436000E0436004B0704770B58EB040
S1131110041C05A8059106920793002323606360CD
S113112001332372037A12AA127ADBB2934220D0DB
S1131130037A002B0DD0012212AB1A726B4612AA4D
S113114023CA23C3201C0599069A079B2E4DA84742
S113115056E005AB01221A726A4612A961C961C23E
S1131160201C0599069A079B274DA8470023237244
S113117046E005AB1B7A002B2BD008AA05AB23CB8A
S113118023C20BAB12AA23CA23C3089A0B9B9A420D
S113119007D8089A0B9B9A420ED3099A0C9B9A4241
S11311A00AD96B4612AA23CA23C3201C0599069A9E
S11311B0079B164DA84723E005AB6A4623CB23C201
S11311C0201C1299139A149B104DA84700232372D4
S11311D016E0012212AB1A7205AB1A726A4612A902
S11311E061C961C2201C0599069A079BFFF78EFF0F
S11311F0237A002B02D00023237201E001232372FF
S1131200201C0EB070BDC04611120000CD100000AD
S1131210F0B5474680B49AB0041C05A8059106921F
S1131220079300232360636001332372037A002B46
S113123013D020AB1B7A002B14D10EE020AB1B7A09
S1131240002B46D137E020AB1B7A002B46D152E06D
S113125020AB1B7A002B53D081E005AB1B7A002B0B
S1131260ECD136E008AA05AB111C61CB61C10BAB14
S1131270191C20A8E0C8E0C114AD002114911591F7
S1131280013129720999089A0B98821814920C9EBC
S11312907618149F301CFA21C9013A4B9847C71994
S11312A01497301CFA21C901374B98476960231CF5
S11312B007CD07C353E0012220AB1A726B4620AA64
S11312C023CA23C3201C0599069A079B2F4DA847C0
S11312D045E005AB1B7A002B0DD1B4E705AB012229
S11312E01A726A4623CB23C2201C2099219A229B7E
S11312F0264DA84733E005AB1B7A002B2FD1A7E777
S113130005AB0121197220AA11720EAA101CE0CBA0
S1131310E0C011AB9C46181C20ADC8CDC8C017ADA9
S113132000271797189729720F990E9A1198821807
S1131330179263465E687618179B9846301CFA210C
S1131340C901104B984740441790301CFA21C90139
S11313500D4B98476960231C07CD07C3277260684B
S11313602568FA21C901074B98474519256060682B
S1131370FA21C901044B98476160201C1AB004BCCF
S11313809046F0BDAD620000B96300000D1100008D
S113139070B5041C134A138802218B431380937A7B
S11313A0DB09FCD10F4B1E690F4A1168216052689A
S11313B06260198802220A431A8001232372636837
S11313C09B19636060682568FA21C901074B984737
S11313D0451925606068FA21C901054B9847616089
S11313E0301C70BD00140040BC000020AD62000041
S11313F0B9630000F0B5474680B484B0019002910F
S11314000392164A138802218B431380937ADB09D3
S1131410FCD10298124F9621B847104D2961019BC7
S1131420104C23600298104B9846962198479623B7
S11314305843606060682668FA21C901C04786196C
S113144026606068FA21C901B84761602A880223CE
S113145013432B8004B004BC9046F0BD001400403C
S1131460B9630000BC000020AD620000F0B58DB08F
S113147072B6BFF35F8F0022574B1A70574B1A781E
S1131480574B1A70574B5A6896325A605A68564BE3
S11314909A4203D80022514B1A7002E001224F4BAA
S11314A01A704E4B1B78DBB24D4A12789A4217D011
S11314B04A4B1C78E4B24D4B1B785BB2013304D128
S11314C04B484C4928224C4B9847002C04D0474B9E
S11314D01A695B68136003E0444BDA685B68136065
S11314E0404C60682568FA21C901444B9847451966
S11314F025606068FA21C901414B98476160414BFE
S11315001B68002B60D0404B1B68002B3CD13F4B29
S11315101A683D4B1A603B4C2068C317C0185840EA
S1131520FA21C901354B984709902068C317C018A0
S11315305840FA21C901324B98470A912368002B7D
S113154003DA002209AB1A7202E0012209AB1A7213
S1131550244E04AC09AD6B462A1C83CA83C3201CE9
S113156031687268B3682A4FB847231C07CB07C693
S1131570284E6B4607CD07C3201C31687268B368D8
S1131580B8470ECC0EC603E01F4A1368013B136034
S1131590204C60682568194FFA21C901B8474519DC
S11315A025606068164EFA21C901B04761600D4C90
S11315B060682568FA21C901B84745192560606843
S11315C0FA21C901B04761600122034B1A70BFF3CD
S11315D05F8F62B60DB0F0BDD0000020203D00202A
S11315E0183D0020BC0000207F3E0000283D002064
S11315F0ACE60000C4E60000B14B0000AD620000A0
S1131600B9630000443D0020243D00201C3D00201F
S1131610111200003441002008B5064B197A01224A
S11316200A431A721A7A802149420A431A72024BF7
S1131630984708BD001400406D14000008B5214807
S11316402149224B9847224B224A5A608122520058
S11316509A60214A5A80214B1988214A0A401A80EB
S11316601A880C218A431A801A880B398A431A80F3
S1131670198880220A431A80D97980204042014384
S1131680D971D97901221143D971197A0A431A728D
S11316901A7A02431A7200221A61124A12689A6173
S11316A0198802220A431A800F4AC021890053581C
S11316B01B021B0AC0200006034353500823136077
S11316C008BDC0467C44002010E70000894B0000A0
S11316D0000C004002040100044200000014004019
S11316E0FFF0FFFFC800002000E100E008B5074854
S11316F0002303704360037243728372C360036107
S1131700436183611321024B984708BD283D0020A3
S1131710D54B0000F8B5082854D14AE02A482B4B91
S1131720984787B22A4B32215A5CD2B2C0B298543D
S11317305A5C0132D2B25A545B5CDBB2312B03D90E
S113174000213223224AD154552F0FD1214B186C3A
S1131750002804D00021002200231F4FB847012293
S11317603023EA54301C1D4B984726E03023194A95
S1131770D35C002B08D000213023D154002F03D197
S113178001310133D15418E03123124AD35C002BC8
S113179013D0032F05D1131C526A9A619A6ADA6135
S11317A00BE0012F09D10B4B5A6ADA609A6A1A616D
S11317B003E0054C074D2E1C2436201C084B98478B
S11317C00028ABD1F8BDC0467C3D0020C51C0000FC
S11317D0483D002008420020350400009113000019
S11317E0F91C0000044A3323D35C3221505C181ADC
S11317F0431E9841C0B27047483D0020034A32233B
S1131800D35CDBB2332153547047C046483D0020BB
S113181070B5061C0D1C064C201C064B9847201C5A
S1131820311C2A1C044B9847201C044B984770BD5C
S11318307C3D0020191D0000291F0000711D0000BF
S113184008B50D4B98470023002813D00B4B3321C8
S11318505A5CD2B2985CC0B25A5C0132D2B25A54C9
S11318605A5CD2B2031C312A04D900213323034A1F
S1131870D154031C181C08BDE5170000483D002086
S113188010B50A480A490B4B98470B4B00223321E9
S11318905A5401395A54094C201C0949094B984798
S11318A0201C0C21084B984710BDC0467C440020E6
S11318B028E70000894B0000483D00207C3D0020C3
S11318C015170000BD1C0000AD1C000030B585B02C
S11318D00A4C3F230093103B01931B3B02930C33B0
S11318E00393201C3E2153223233054DA847201C6C
S11318F00449054A054B984705B030BD7C3D00209E
S1131900E91A0000E51A0000B0000020956200000A
S113191070B572B6BFF35F8F164C00232370164B5D
S11319209847164B9847164B9847164B9847164BB3
S1131930984701232370BFF35F8F62B6134D281CB1
S11319401349144CA047281C13490122A047281C02
S11319501249A047281C1249A0471248124B984725
S1131960124B9847094E124D0A4C301C291CA047B3
S1131970FBE7C046D0000020A53700003D1600005C
S1131980F929000081180000E12800007C440020AF
S11319903CE70000894B00008CE70000A0E7000052
S11319A0B0E70000D0E7000079AE0000FD080000B9
S11319B01CE80000F0B557464E464546E0B482B0F8
S11319C00AAC002565570BAC2478002C02D07C307F
S11319D0FF306BE0384C0355384C045D002C5BD170
S11319E0072917D8002954D0FC23FF33C35C5C1C9F
S11319F07F252C407E35FF35455DA54249D0171C17
S1131A000139C9B25218FC21FF317F25AC46FE26AC
S1131A10760035E08E1E092E3BDDFC23FF33C45CCB
S1131A20631C7F210B407E31FF31415C09259942C3
S1131A300AD12EE047463B40013367463B405746B8
S1131A40C75D9F4209D124E0FC21FF31FF27B8463E
S1131A50803FBC467E37FF37BA46575D0419793458
S1131A60FF34E770DCB244540135EDB2B542E1DB3A
S1131A700FE0013465462C400137855DA54208D04E
S1131A803D78C3187933FF33DD70E3B24354974292
S1131A90EFD17C30FF3009E000240094A124A4009D
S1131AA00459081C111C1A1C2B1CA04702B01CBC96
S1131AB090469946A246F0BD7D0200007F020000D8
S1131AC010B5041CA0239B00C35C002B04D0A223EC
S1131AD09B00C358081C98470022014BE25410BDD8
S1131AE0820200007047C046F0B5474680B486B015
S1131AF0051C0CA8002686570DA80027C7570EA85A
S1131B00007840B28046281C1430012464420094BA
S1131B102C4CA0470024A823EC54281CA830446073
S1131B20047244728472C460046144618461311C2F
S1131B30254EB047C423EC54281CC43044600472BE
S1131B4044728472C460046144618461391CB04786
S1131B50E023EC54281CE030446004724472847224
S1131B60C4600461446184614146B047A2239B0080
S1131B70EC50043BEC502C700833EC54134BEC54F5
S1131B80134BEC54134BEC54013BEC54124BEC54FC
S1131B90124BEC54124BEC54023BEC54FC23FF3339
S1131BA0EC540133EC54281C0E4900220E4B984788
S1131BB0281C0E4900220E4B9847281C06B004BC72
S1131BC09046F0BDE1470000D54B00008D020000B7
S1131BD08E020000810200007F0200007D020000EE
S1131BE07E020000B5190000511F0000C11A000058
S1131BF0691F000070B5061C0D1C141C011CFC316F
S1131C007F22204B9847002C0CD0221C331CFE331F
S1131C10FF331D4970181178197001320133834262
S1131C20F9D11BE04122FE23FF33F2544732013342
S1131C30F2540023154AB354CD210132B154223950
S1131C40134AB154033AFF3A124972541249725476
S1131C5001210632FF32B154104AB354EAB2301CA7
S1131C6000210F4B98470F4BF35C002B04D0301C22
S1131C7004210D4B984703E0301C02210A4B98477E
S1131C8070BDC0468520000006020000FF01000070
S1131C90010200000202000003020000050200002D
S1131CA0C52300008D0200007521000008B5002244
S1131CB0014B984708BDC046F51B0000A5239B00B7
S1131CC0C1507047FE235B00C35CFC22FF32825C80
S1131CD09A420BD0C2187932FF32D27801337F2175
S1131CE00B407E31FF31435490B200E0014800B212
S1131CF07047C046FFFF0000FC23FF33C35C803302
S1131D00FE225200805C1B1AD817420E9B187F20BB
S1131D100340981A40B270470122074BC254833BD8
S1131D20FF3B064A8354064A8354FB3AFF3A7E3308
S1131D30FF33C2547047C046810200000202000013
S1131D400302000010B582B06B46D980074C6B4685
S1131D50991D035D002B06D00B889BB25A1E92B2CC
S1131D600A80002BF5D102B010BDC04682020000EB
S1131D7038B5041C0022284BC2549F229200835C75
S1131D80023383542549264B98470122254BE254BC
S1131D900A33E35C002B04D0201C0321224B984718
S1131DA003E0201C0121204B9847204BE35CFF2BD0
S1131DB006D1FE22FF32A35C20218B43A3540CE006
S1131DC01B4BE35C002B04D14122FE23FF33E2547E
S1131DD003E06122FE23FF33E2549F239B00E15C76
S1131DE0201C221CFE32FF320023124DA847201C67
S1131DF00A490B4B9847104BE35C002B04D0201C82
S1131E000421094B984703E0201C0221064B984704
S1131E100022044BE25438BD81020000FFFF0000A1
S1131E20451D00008202000075210000020200002E
S1131E308E020000C92400008D02000038B5041C85
S1131E402D4BC35C002B20D09F239B00C35C7C2BB9
S1131E5051D8C218F932FF3251710133DBB29F22DB
S1131E60920083547C2B46D9244B98470122224B61
S1131E70E254833BFF3B224AA354224AA354FB3A35
S1131E80FF3A7E33FF33E25435E01F4BC154002345
S1131E901E4A8354013283541D491E4B9847012224
S1131EA01D4BE2540A33E35C002B04D0201C0321B5
S1131EB01A4B984703E0201C0121184B9847201C1B
S1131EC00A21221CFE32FF320023154DA847201C94
S1131ED00F49104B9847134BE35C002B04D0201C94
S1131EE004210E4B984703E0201C02210B4B98471A
S1131EF00022094BE25438BD81020000711D00002C
S1131F0002020000030200000602000007020000B3
S1131F10FFFF0000451D0000820200007521000043
S1131F20C92400008D020000F8B5002A0CD0061C5C
S1131F300C1C551EEDB201354D19044F2178301C8F
S1131F40B8470134AC42F9D1F8BDC0463D1E00008B
S1131F5082B06B4600910192A6229200944660449E
S1131F6006CB06C002B0704782B06B460091019266
S1131F70A82292009446604406CB06C002B0704783
S1131F8008B5A4239B00C358002B01D0081C984714
S1131F9008BDC04608B5A5239B00C358002B01D03B
S1131FA0081C984708BDC046F0B585B003930AAC39
S1131FB00027E7570BAC2678A624A4000559002D6A
S1131FC005D104340459E30706D4101C0DE0A724FA
S1131FD0A4000459E30702D56310C3585D59039B59
S1131FE06410001900970196A84705B0F0BDC046DB
S1131FF010B5A8239B00C258002A04D10433C35847
S1132000DC0705D40AE0A9239B00C358DC0702D5EA
S11320105C100459A2585B10C018904710BDC0460C
S1132020F0B587B0041C0721124B98470390227C1B
S11320300F2702AB9C466744201CE1683B1C0E4DF5
S1132040A847051C201C0621802207230B4EB047FD
S11320507F2129403B786A460C26965700964242D7
S113206042410192201CE268054DA847E06007B098
S1132070F0BDC046A5260000E5270000112700009A
S1132080A91F000030B583B0041CC16002742F493D
S11320902F4B9847C423E356013304D12D482E49CE
S11320A028222E4B9847231CC433DA685B681360DC
S11320B0E023E356013304D1264827492822274B3D
S11320C09847231CE033DA685B6813600620244BCE
S11320D09847C423E356013304D11E481E492822DD
S11320E01E4B9847231CC4331A695B681360201C79
S11320F00E2100221B4B9847201C0F211A4B984796
S113210008230093201C02211F220023174DA847F7
S1132110FF204000124B9847154D201C01211F221F
S11321200023A8470828F8D101230093201C042188
S1132130202204330D4DA847201C0E210C22094BEC
S113214098470023E371237203B030BD40420F006F
S11321509D250000ACE60000C4E60000B14B000081
S1132160914C00003D260000A52600002927000010
S113217011270000F0B54F4680B486B002900F23BB
S11321806B4419701B78DBB2052B3BD89B00654A66
S1132190D3589F46082316226A44137015226A44B2
S11321A01370B4E0062316226A44137015226A449D
S11321B01370ACE0092316226A44137015226A4492
S11321C01370A4E0162316226A44137015226A447D
S11321D013709CE0192316226A44137015226A4472
S11321E0137094E0082216236B441A70053A1523E1
S11321F06B441A70029BDB79052B00D18EE001231E
S113220099463DE002980421474B9847082316223B
S11322106A44137015226A44137078E0E023029A2A
S1132220D356013304D1414841492822414B9847B0
S1132230029BE033DA685B681360FA2040003E4B8F
S1132240984764243D4F17256D443B4E0298012165
S11322501F220023B84728702B78082B05D0322082
S1132260B047013CE4B2002CF0D117236B441B7837
S113227000229146082B03D0029801212A4B98474B
S113228015236B441B780093029802211F2200231C
S11322902B4CA0478C24294F17256D44264E0298B9
S11322A001211F220023B847287016236B441B7892
S11322B02A78DBB2934205D02020B047013CE4B237
S11322C0002CECD116236B441B7817226A44127835
S11322D0DBB2934203D002980121134B98474B463B
S11322E0002B0ED0E023029AD356013304D10F48B9
S11322F00F4928220F4B9847029BE0331A695B6809
S113230013600F236B441B78029AD37106E0029B7F
S1132310DB79052B82D000239946B1E706B004BCD3
S11323209146F0BD50E80000811F0000ACE60000BB
S1132330C4E60000B14B0000914C000011270000DE
S11323402927000070B5041C0D1C0B072BD5C3797D
S1132350991EFD22114202D1154B984723E0012B0F
S113236007D10021134B9847217A201C124B984720
S113237019E0032B17D10221E02202330F4EB0479C
S1132380032806D007D30538434243410321C91A21
S113239002E0012100E00021201C064B9847217A2D
S11323A0201C054B9847201C291C054B984770BDE1
S11323B021200000F11F00007521000011270000FA
S11323C0951F0000F0B5474680B482B0051C08296B
S11323D064D88900354B5B589F46D4B2231C0B3B11
S11323E00F2B07D8009408211F220023304EB0473A
S11323F02C7156E002212F4B984752E0D2B2131CA5
S11324001133DBB2142B09D842712B4AD35C0093ED
S113241005210F220023264CA04742E00221254B30
S113242098473EE0D2B2032A07D88271009208216D
S1132430602205231E4CA04733E002211D4B984720
S11324402FE0D1B201721D4B98472AE094B2E2B258
S113245022211B4EB047220A281C2321B04720E02A
S113246094B2E2B22021164EB047220A281C212140
S1132470B04716E0171C0832141C2426104B98464B
S11324803A78281C311CC0470136F6B20137A742FE
S1132490F6D106E0D1B20B4B984702E00221054B7E
S11324A0984702B004BC9046F0BDC04668E80000FE
S11324B029270000811F00008CE80000752100001E
S11324C03D2600002D25000070B5041C0E1C151CB3
S11324D0937801339370E023C356013304D10F483A
S11324E00F4928220F4B9847231CE0331A695B6875
S11324F01360E023E356013304D108480849282235
S1132500084B9847231CE033DA685B681360201C8F
S1132510311C2A1C044B984770BDC046ACE6000031
S1132520C4E60000B14B00005D270000F8B5061CAE
S11325300C1E342C0FD0342903D8002533290BD09A
S113254007E0542903D00125942905D001E003258F
S113255002E0FF2411E00225301C02210322084F6F
S1132560B847301C0C21074B98470323021C9A439D
S11325701543EAB2301C0C21B847201CF8BDC046F4
S11325803D260000A526000008B5024B1868024B42
S1132590984708BD24400020A128000070B584B0ED
S11325A0051C0E1CA823C356013304D1184819492D
S11325B02822194B98472B1CA8331A695B681360AF
S11325C02C1C1434201C08210022144B9847201C76
S11325D0311C134B984701AC201C124B9847202305
S11325E00193002363600122E272A3720020211C84
S11325F00D4B98470D4B1D600D48002100220D4BDB
S11326009847002000210C4B984704B070BDC04689
S1132610ACE60000C4E60000B14B0000E148000055
S1132620FD480000C53D0000D93D000024400020C5
S113263089250000C53C0000ED3C0000F8B5041CF1
S1132640171CC02319430D1C183BC356013304D176
S1132650104811492822114B9847231CA833DA68E3
S11326605B681360261C1436301C291C0C4DA847CB
S1132670301C391CA847A823E356013304D105486C
S113268005492822054B9847A834236962681A60D3
S1132690F8BDC046ACE60000C4E60000B14B000043
S11326A015490000F8B5041C3F25294041350D4368
S11326B0A823C356013304D1114812492822124BCE
S11326C09847231CA833DA685B681360271C143707
S11326D0381C291C0D4EB047381C291CB047C5B204
S11326E0A823E356013304D1054806492822064BA2
S11326F09847A834236962681A60281CF8BDC0464C
S1132700ACE60000C4E60000B14B0000154900002F
S113271038B5151C1C1C034B984728402041C0B2F7
S113272038BDC046A5260000F0B583B0051C161CB4
S11327301C1C08AB1F780191064B9847B043C0B2EC
S11327403A1CA24032400243281C0199024B98478C
S113275003B0F0BDA52600003D260000F0B583B00F
S1132760061C0F1C151CA823C356013304D1194899
S113277019492822194B9847331CA833DA685B6837
S1132780136014239C46B44463460193604660215D
S1132790134CA0470198391CA0472C1C013FFFB2E1
S11327A00137ED190E4F21780198B8470134AC4236
S11327B0F9D1A823F356013304D106480649282247
S11327C0064B9847331CA8331A695B68136003B03F
S11327D0F0BDC046ACE60000C4E60000B14B00000A
S11327E015490000F0B557464E46C0B483B0071CE7
S11327F00191151C9946A823C356013304D12448DA
S113280024492822244B98473B1CA833DA685B6888
S1132810136014239C46BC44634666460093181C0C
S113282020211E4CA047301C0021A047C6B2AE4256
S113283018D8019A141C731EDBB20133D518174B38
S11328409A4600980021D04720700134AC42F8D158
S11328504B46002B08D000980021104B98474B465C
S1132860187001E080231E43A823FB56013304D1D2
S1132870074808492822084B9847A8373B697A68D3
S11328801A60301C03B00CBC91469A46F0BDC04699
S1132890ACE60000C4E60000B14B0000154900009E
S11328A038B5041C0F210C4B9847051C430704D56D
S11328B0201C0621084B984720702B0707D5237846
S11328C0002B04D1201C0621034B98472070201CA8
S11328D0291C024B984738BDA5260000452300005B
S11328E030B585B00E480F490F4B9847012300932C
S11328F000240194029403940C480D49962252003A
S113290000230C4DA84703230093019402940394DD
S113291009480A49E12292000023A84705B030BDC6
S11329207C440020A4E80000894B0000C13700006B
S1132930B4E800001107000075360000B8E8000094
S113294070B58EB008AD00230893099301222A7252
S11329500BAC0B930C932272281C1E4B9847089BBC
S11329600B936B68636062681B4B9A4202D90B9BA2
S113297001330B9300230C93184D04AC08AB6A4647
S113298043CB43C2201C0B990C9A0D9B144EB047A9
S11329902B1C443307CC07C34C23EB5C002B0AD01D
S11329A00E4B5A6C9B6C0B995B0800910D480E49B9
S11329B00E4CA04709E0094B5A6C9B6C0B995B08C1
S11329C0009108480A49094CA0470648094B984712
S11329D00EB070BD911300007F3E0000084200203D
S11329E00D11000028400020C0E800008DB0000058
S11329F0DCE800002938000010B584B00E480F4907
S1132A000F4B984701AC201C0E4B98471C23019395
S1132A10002363600122E272A3720820211C0A4B86
S1132A2098470A4808210022094B984708200021AA
S1132A30084B984704B010BD7C440020FCE800001B
S1132A40894B0000C53D0000D93D0000412900002C
S1132A50C53C0000ED3C000010B50B1C4343002BAB
S1132A6013D00023FA24A400884201DD401A00E0B8
S1132A70091A01330A1C4243002A03D0A342F3D1AA
S1132A80012107E0044A934203DC002802D0011C20
S1132A9000E00121081C10BDE7030000044A0023E4
S1132AA013605360034A1365136753675366704793
S1132AB03441002008420020F0B55F4656464D469A
S1132AC04446F0B491B0BE4B1B6D002B00D16FE1B6
S1132AD0BC48BD4B9847BA49CD23C85C0DABBB4A33
S1132AE01C1CE0CAE0C454228A5C197AD3B2804622
S1132AF08B4205D00021CC23B14AD15400239846FF
S1132B00AF4F386F3C6DB24EB047051C201CB04728
S1132B10011C281CAF4B9847051CAF4B9847061C5B
S1132B200790786FAD4F211CB847AD4B9847029082
S1132B300391301CAB4B9847011C281CAA4B9847A7
S1132B40AA4B98470022AA4BAA4DA847021C0B1C6B
S1132B5002980399A84DA847A84B984708909B4E04
S1132B603068211CB8470AAD0A907068211CB84728
S1132B706860337ADBB22B720798089A0A9C6968FA
S1132B80FA23DB0163435F182B7A002B00D17F42C9
S1132B909B4B1B689B4B1C68002F00D1F4E09A4BA5
S1132BA09C4227DCFA23DB0158438018884B984762
S1132BB002908C4E954D874B9A46FA239B0099467A
S1132BC0934B9B460497201CB0479249A847071C87
S1132BD00498B047011C381CA8470299D047071C29
S1132BE001344C4509D0FC218905D8470028EAD195
S1132BF03A1C03E000231A1C00E0021C704ECC2394
S1132C00F55C2B1C0F33DB00F3185A60EB00F6184D
S1132C107C36201C734B984770600135EDB2092255
S1132C204346D90FD317404682424B419844A845A6
S1132C3003DBCC23624AD55403E00021CC23604A51
S1132C40D1544346002B18DD5D4A161C7C36DB004C
S1132C507C33D518002402946F4F2B1C251C1C1C9C
S1132C6002983168B8470290281C7168B847051C5F
S1132C700836A642F4D1041C01E000240294404624
S1132C80664B984704900591584F0298B847644E94
S1132C90049A059BB047634DA8470290201CB8478F
S1132CA0049A059BB047A84704904B4A9346904723
S1132CB0041C72B6BFF35F8F5B4D00232B70504F23
S1132CC03E680298D847801B3F68C71901232B70C0
S1132CD0BFF35F8F62B6002F0EDA381C414B984762
S1132CE0011C0298404B9847BF210906484B98475E
S1132CF0431E98413F1A0DE0381C3A4B9847011C7B
S1132D000298394B9847FC218905484B9847431E44
S1132D1098413F18201C334B9847011C0498324BB0
S1132D209847FC218905414B9847431E9841241834
S1132D30201C391C3E4B9847031C3E4A9246201CDB
S1132D400293191C9047041C72B6BFF35F8F364A76
S1132D509146002313702A4D2A6893462E68381C26
S1132D600299D0475B46C01A86192E60254B1C6019
S1132D70314B1C6001234A461370BFF35F8F62B668
S1132D80CC330F4A4146D1542C4B98471C4B1A68FC
S1132D900AAB1B7A2A4D009343460193281C294908
S1132DA0231C294CA047281C074CA0472748A047B0
S1132DB011B03CBC90469946A246AB46F0BDC04615
S1132DC0084200200CE900002938000034410020AA
S1132DD03D740000296A00006D730000AD620000BC
S1132DE0A5900000AD73000071700000099100000F
S1132DF00040DF4099830000CD740000F5660000B8
S1132E00443D00201C3D0020E70300000D6E00003F
S1132E105166000000001643316700002D90000049
S1132E201D7B0000B1910000D000002079660000F5
S1132E30592A0000CD630000243D00209D2A000093
S1132E404041002024E900008DB0000058E9000052
S1132E50F0B58BB0704B1B6D0020002B00D1D9E076
S1132E606E486F4B984707AF0023079308930133CD
S1132E703B72694C206F236D03936A4EB047051C67
S1132E800398B047011C281C674B9847051C674BE7
S1132E909847061C0790606F0399654B9847654CEB
S1132EA0A04704900591301C634B9847011C281CD3
S1132EB0624B9847624B98470022624B624DA84789
S1132EC0021C0B1C04980599604DA847604B984759
S1132ED07860079B7A68FA26F60173439F185D4B66
S1132EE01868A047021C0B1C002056495A4DA847DD
S1132EF05A4B984704905A4A106853687043C01854
S1132F00137A002B00D140420399564B98474A4DFF
S1132F10A847061C381C474B98470022494B4E4C87
S1132F20A0474E4B9847011C3F4C301CA0473F4BD9
S1132F309847A8474C49A047041CFE2189054B4BE0
S1132F40984700280AD0FE208005211C3B4B984757
S1132F50011C0498344B9847051C09E0201CFE21F1
S1132F608905434B9847011C04982F4B9847051C2F
S1132F703D48291C2C4B9847061C2C4B9847041C95
S1132F80301C2F4B9847061C0F1C201C294B9847BC
S1132F90021C0B1C301C391C364EB0470022364B29
S1132FA0364EB047431E98412418FA23DB019C4255
S1132FB000D91C1C274B1B68A34227D0254E346024
S1132FC02F4B984700232F4A1360134ACD215354A3
S1132FD00139535432682C4B9A6137682B4E281CA4
S1132FE0124B9847051CFA20C001391C104B984716
S1132FF0031C0094301C26492A1C264CA047301C74
S1133000074CA0472448A047012003E02248044B72
S1133010984700200BB0F0BD0842002074E900007E
S1133020293800003D740000296A00006D73000017
S1133030AD620000A5900000AD7300007170000047
S1133040099100000040DF4099830000CD74000026
S1133050F5660000C80000201D7B0000B19100004F
S113306034410020CD6300000000FA4651660000A0
S113307031670000CD8800000000E03F05660000D5
S11330809D2A0000443D00200014004040410020DF
S11330908CE900008DB00000B4E9000008B50C4BC9
S11330A098470C4B1B68C01AFA23DB0098420DD9D1
S11330B0094B1B6D022B09D9054B9847054B18602A
S11330C0064B9847002801D1054B984708BDC046D8
S11330D0650900006440002008420020512E0000D1
S11330E0B92A0000F0B5474680B490B0574A4C2343
S11330F0D35CDBB2CE21525C9A424ED1534C4C236A
S1133100E25C8233E254636EA365A36EE365201C24
S113311064304F4B9847A36D002B40D04B4A131C8F
S11331205C33694611CB11C1936D506E916ED26EB2
S1133130484CA04700282DD00AAE444C231C5833D9
S11331406A4623CB23C2301C616EA26EE36E424DED
S1133150A84706AD6B4607CE07C3281C216F626FD4
S1133160A36F3E4EB046B047231C70332A1C43CA9B
S113317043C33B4E231C44336A4683CB83C2281C7F
S113318031687268B368C0470ECD0EC6236D013333
S1133190236504E0334B984701E0324B98472B4EAC
S11331A04C239846F25C8233F2540DAD281C284B14
S11331B0984706AC331C44336A4683CB83C2201C35
S11331C00D996A68AB68254FB847231C07CB07C520
S11331D00D986168A268244B98474346F35C002B22
S11331E016D01A494A6C8B6C4E6C886C896C0D9D98
S11331F00E9C0096400901901F2001404801411A8D
S1133200029103950494194819491A4CA04715E0F2
S11332100E494A6C8B6C4E6C886C896C0D9D0E9CAF
S11332200096400901901F2001404801411A029173
S1133230039504940D4810490E4CA0470B480F4BBE
S1133240984710B004BC9046F0BDC0460842002028
S1133250911300009D1000000D11000011120000D8
S1133260344100209D2A0000F5130000684000202E
S1133270DCE900008DB0000020EA000029380000DD
S1133280CB18C018C0B200290AD0131C0139C9B226
S11332900131521819784018C0B201339342F9D160
S11332A07047C046F0B5474680B4A4B009A90023CE
S11332B009930A9301220A720CA90C930D930A72C2
S11332C00FA90F9310930A7212A9129313930A72FF
S11332D015A9159316930A7218A9189319930A72CB
S11332E0974B9847002800D126E16420954B9847D6
S11332F0954B9847552800D01EE1934EB047051CC6
S11333001BAC6070B0472070032865D002D8012838
S113331004D00CE1052800D80EE108E18B488C4B61
S11333209847894B984780461BAB987000280DD06E
S11333306F246C44461EF6B224AB9C466644203E81
S1133340814FB84720700134B442FAD17E4B98477C
S1133350041C21231BAAD054012041466F226A4435
S11333602B1C7C4DA847844203D07B48784B98475C
S1133370E2E01BAB1A791102DA780A4318AE18920C
S11333809A7912025B791343199304AC734D2B1C85
S113339034336A4683CB83C2201C1899199A1A9B2A
S11333A06F4FB847231C07CB07C62B1C0C336A4648
S11333B043CB43C2201C18996268A368694EB04786
S11333C02B1C443307CC07C3674B98476748604BB3
S11333D09847674B9847AFE05B4B984780461BABD9
S11333E0987000280DD06F246C44461EF6B224ABAE
S11333F09C466644203E544FB84720700134B44282
S1133400FAD1514B9847041C21231BAAD054032002
S113341041466F226A442B1C4E4DA847844205D076
S1133420534B98474C484A4B984785E05148484B82
S113343098471BABDB78022B75D11BAB5A79110271
S11334401A790A430992DA7911029A790A430A929B
S11334505A7A11021A7A0A430CAE0C92DA7A1202E0
S11334609B7A13430D933D4C6B46221C23CA23C302
S11334700FA809990A9A0B9B3A4FB84712AD6B46AD
S113348007CE07C3281CA169E269236AB8476B46C3
S11334902A1C43CA43C315A80F99109A119B304E96
S11334A0B047159B5B086363169B5B08A36304AE7C
S11334B06B4607CD07C3301C0F99109A119BB84770
S11334C0231C443307CE07C3636C5B086364A36C9B
S11334D05B08A364244B98473C23E35C002B0DD08A
S11334E01E494A6B8B6B886B5B091F210840414363
S11334F0009121482149224CA0470CE017494A6B0E
S11335008B6B886B5B091F210840414300911A486B
S11335101C491B4CA04718480D4CA047144B984716
S11335201948A04708E01948094B984704E018488F
S1133530074B98470E4B984724B004BC9046F0BD07
S1133540E5170000990B00004118000064EA000030
S1133550293800008132000074EA0000084200208B
S1133560111200000D110000E530000080EA000097
S1133570FD17000090EA0000D8420020A8EA0000ED
S11335808DB00000CCEA0000F0EA00000CEB000073
S113359028EB000010B50223014CA04710BDC04623
S11335A081320000F0B5474680B400AF0C1C0B1C00
S11335B00B33DB08DB006946CB1A9D466D46552369
S11335C02B70533B6B70A870002C0BD0EC70002355
S11335D0E918D65C0E710133D9B28C42F8D8231C99
S11335E0012601E00026002303339846B044211C41
S11335F0064B98474346E85404343119C9B2281C91
S1133600034B9847BD4604BC9046F0BD9535000079
S11336101118000008B50648064B984702200021FF
S11336200022054B98470548054B984708BDC046FE
S11336300842002091130000A53500003CEB000077
S11336402938000008B5074B9847074B1B68C01A78
S1133650064B984205D9034B9847034B1860044B1B
S1133660984708BD6509000030410020102700007C
S113367015360000F8B572B6BFF35F8F0023274AF2
S11336801370274C01222C2162540C396254227588
S11336902272236523490B604B600A726366A3663A
S11336A06C216254A365E3650C3962546C31635434
S11336B0013163546363A363913962542F32A35479
S11336C02364012000212D3A174B984720640028D9
S11336D004D0002100220023144CA04701220F4BE8
S11336E01A70BFF35F8F62B6114B98470C4D114FA0
S11336F02E1C2B6C002B0ED0B847306C0021FA2204
S1133700520000230C4CA047012804D163300B4B1A
S113371098470B4B98470B4B9847EAE7D00000209B
S11337200842002034410020C102000011030000BF
S11337301536000045360000A1040000990B000076
S1133740A53200009D3000007047C04610B5041C2F
S1133750064B0360191C1831DC2281504C330432AF
S11337608350DC30024B9847201C10BD80EE0000D3
S1133770654B000008B4024B9C46DC3808BC60472B
S11337804D37000008B4024B9C46E03808BC604743
S11337904D37000010B5041C014B9847201C10BD88
S11337A0A362000008B50348DC300349034B984783
S11337B008BDC046A043002050EB0000894B000028
S11337C0F0B583B0322004210022104B9847104BEF
S11337D018601F1C0F4DDC353B68002B08D110E02E
S11337E0281C01990C4CA047281C0C49A04700E058
S11337F0074E306801A900220023094CA047002885
S1133800EED1FA204000074B9847E5E7C1020000DB
S113381094440020A0430020894B0000ACE7000042
S1133820A1040000990B000010B582B00190084B70
S11338301868002809D001A900220023054CA047DC
S1133840013843425841C0B200E0002002B010BD2C
S1133850944400201103000010B5041C084B0360BD
S1133860191C1831DC2281504C3304328350DC3073
S1133870044B9847201C044B9847201C10BDC0469D
S113388080EE0000654B0000A362000008B4024B08
S11338909C46DC3808BC60475938000008B4024B29
S11338A09C46E03808BC60475938000038B5064CDF
S11338B0201C042105220023044DA847201C044990
S11338C0044A054B984738BDA043002059490000DD
S11338D04D370000B00000209562000008B572B6B4
S11338E0962001F0E1F9962001F0DEF9F8E7C046F0
S11338F00B4A30B594689268231C002A0CD100232B
S113390080221D5992059A1804331560B02BF7D103
S11339108023034A9B05936010308000C15030BD62
S113392000ED00E008B5044B1A78002A03D10132F7
S11339301A7000F00FFC08BD98440020036870B5AD
S11339401B6900210122041C9847061C431C0ED04D
S1133950236800211B690222201C9847051C236848
S1133960201C1B69311C00229847281C70BDFDE7F0
S113397008B503480421052200F02AFD08BDC0460D
S113398040460020094B10B508330360084B002162
S11339905A1CFF3202E00433934206D01C6884426E
S11339A0F9D1196004339342F8D110BD78EB0000CB
S11339B09C440020F0B5474680B40E1C82B03449C4
S11339C0051C07F0FBFB041E08D1324B1B68002BBF
S11339D00FD0201C02B004BC9046F0BD281C2E4918
S11339E007F0ECFB002807D12A4B01241B68002BAD
S11339F0EFD1FFF7BDFFECE7281C284907F0DEFBF9
S1133A00002824D0264F00243B1C03E00134043357
S1133A10402C22D01A68002AF8D12B783A2B30D0C7
S1133A206846291C00F05EFE684600F0B5FE0028DA
S1133A3013D0684600F092FE002811D0684600F0CA
S1133A4099FE002809D0A300F8500334C1E7114BB4
S1133A5002241B68002BBCD1CBE701246442B8E7E5
S1133A60684600F06DFE051EF7D0036868469B6843
S1133A70984600F063FE0B4A011C3240281CC047E4
S1133A80DFE7281C08496A4607F022FB0098D8E7BC
S1133A9060EB0000A445002070EB000068EB000020
S1133AA09C440020FFFFFEFFA4EB000008B5031CAC
S1133AB00020022B0ADD0749033B9B005A5858504B
S1133AC0002A04D01368101C5B68984708BD0120C5
S1133AD04042FBE79C440020F8B50C1C171C02284C
S1133AE012DC104B1B68002B01D1FFF741FF002FA4
S1133AF008D00D4DE6192178281C013400F0D2FDC0
S1133B00B442F8D1381CF8BD0338084B8000C058C3
S1133B10002803D003681B689847F4E7012040425B
S1133B20F1E7C046A4450020404600209C44002004
S1133B3010B50C1C022809DC0C4B1B68002B0FD0A1
S1133B400B4800F083FD2070012010BD0338094BA1
S1133B508000C058002806D003689B689847F4E7A3
S1133B60FFF706FFECE701204042EEE7A445002002
S1133B70404600209C44002008B5031C0120022B71
S1133B8008DD033B054A9B009858002803D00368CE
S1133B90DB68984708BD01204042FBE79C440020B5
S1133BA008B5031C0020022B08DD033B05489B00DD
S1133BB01858002803D003681B69984708BD0120E2
S1133BC04042FBE79C44002008B5022804D8802327
S1133BD000209B014B6008BD05F0A6FB0923036090
S1133BE001204042F7E7C04608B5012005F0A2FBDA
S1133BF07047C04608B5FFF795FEFFF7F9FFFDF7DC
S1133C0087FE08BD074A13681818EFF30881884235
S1133C1002D21060181C70470C220120024B404253
S1133C201A60F8E7CC000020B046002008B5002850
S1133C3000D1FEE7FFF752FEFBE7C04608B50021BE
S1133C4007F091F908BDC046FEE7C046164817497B
S1133C5010B588420DD0164B99420AD2CA43D318E4
S1133C6000229B0801339B0084588C5004329A42F2
S1133C70FAD11049104B99420BD2CA430020D318F1
S1133C8000229B0801339B008C18043220609A4266
S1133C90FAD1FF21094B0A4A8B43936005F048FE91
S1133CA0FFF7A8FFFEE7C046E8F90000B0000020D7
S1133CB07401002074010020B446002000000000BC
S1133CC000ED00E01723002A01D0181C7047064AB3
S1133CD089008B58002B03D0834203D01D23F4E7C3
S1133CE08850F2E70023F0E700460020172300295C
S1133CF001D0181C704700221F2800D8024A012353
S1133D008340D3600023F4E700180040F8B5002393
S1133D1001260B4C0B4D0C4F2370321C9A40296921
S1133D20114205D02A619B00DB59002B00D0984733
S1133D3023780133DBB223700F2BEED9F8BDC046D4
S1133D40FC45002000180040004600200223044ADD
S1133D5011780B43137053785BB2002BFBDB704775
S1133D6000180040402300B5124A83B09169052031
S1133D700B439361002301A90B7000F0C9F90520DE
S1133D8000F088F901230C4A11780B43137053781F
S1133D905BB2002BFBDB094B0022191C403104C32E
S1133DA08B42FCD11022064B1A60FFF7CFFF03B001
S1133DB000BDC0460004004000180040004600203A
S1133DC000E100E0002301220360436083720233B8
S1133DD002724272C3727047F0B500230C1C83B0A8
S1133DE001A94B70CB702379051C0B70237A2078C2
S1133DF08B70002600F082F81F2D00D8124E072287
S1133E00A37A2A409200E07A002B01D008231843B9
S1133E100F279740EB089B00F31899699040B9432A
S1133E200A1C02439A61637A002B06D10122AA403C
S1133E3073699343736103B0F0BD0122AA40151C5A
S1133E4073691D437561F6E700180040D37870B5B7
S1133E50002B31D11478802C47D0802324065B02B8
S1133E601C43537802251E1CAE4307D19378002BC4
S1133E7037D180239B021C4341605378013B012BC3
S1133E8035D9A0250B04ED051B0C2B43D02523436A
S1133E9083622D060B0C2B4323438362D378002BC0
S1133EA009D1630303D59378012B23D0416153785F
S1133EB0013B012B13D970BDA0240B04E4051B0C9A
S1133EC02343D0244160240683620B0C2343836282
S1133ED0D378002BEFD15378013B012BEBD88160D1
S1133EE0E9E7C023DB021C43C6E70024B9E7024B21
S1133EF01C40C6E78161DAE7FFFFFBFF08B50A1C37
S1133F00031CC1090020002904D1064958098C4624
S1133F10C00160441F210B401E399940FFF796FFF2
S1133F2008BDC046004400410823064A91690B437A
S1133F30936101230121044A137013781942FCD1BF
S1133F407047C04600040040000C004070B50D7876
S1133F504B782D02041C0543002B02D08023DB0286
S1133F601D434B7A002B02D080231B031D434E6854
S1133F70012E0FD9731E334029D1022E05D00222FF
S1133F80013352009642FBD81B0218438023041CC1
S1133F905B031D430B7A002B02D080239B031D433C
S1133FA00E4A53780D4E5BB2002BFADB00F0DEF8BC
S1133FB0B4607378094A5BB2002BFADB8023516842
S1133FC05B020B401D43556000F0EEF870BD80238A
S1133FD034029B0204431D43DCE7C046000C00404E
S1133FE010B5041C0B4A53785BB2002BFBDB00F0CA
S1133FF0BDF8094B07491C704B78064A5BB2002B8D
S1134000FADB8021536849020B43536000F0CCF87B
S113401010BDC046000C0040040C0040F8B5071C5D
S1134020194A53785BB2002BFBDB00F09FF8174B67
S1134030154A1F705378144C5BB2002BFADB60688E
S1134040C004C00E00F04CFF061C104B1F706568C6
S11340500F4BED02ED0F1F7063785BB2002BFBDB9F
S1134060094B9968090A8CB200F09EF8002D03D020
S1134070611CCE40301CF8BD012CFBD9301C211C26
S113408002F014F9061CF5E7000C0040040C004093
S1134090080C004010B5041C00F068F88021054BA2
S11340A0054A1C705388C9010B43538000F07CF807
S11340B010BDC046020C0040000C004010B5041CAA
S11340C000F054F880200E4B0E4A1C7054880E4B9E
S11340D0518824050B40538051880C4B240F0B400E
S11340E05380C001538807490342FBD14888064BDB
S11340F02202034013434B8000F056F810BDC04623
S1134100020C0040000C0040FFF0FFFFFFBFFFFF68
S113411010B50C7824020443FFF7D0FF014BA4B27E
S11341205C8010BD000C004010B5041C00F01EF8AB
S1134130054B1C70054B5C8800F036F82405240FF1
S1134140201CFFF76BFF10BD020C0040000C004068
S11341507047C04608B500F057FFFFF7F9FFFFF7B7
S1134160F7FFFFF7FFFDFFF7F3FF08BD0B4B1A68DE
S1134170002A05D1EFF31081002905D008490A70FF
S11341801A6801321A60704772B6BFF35F8F054A2E
S11341901170034A01311170F2E7C0469C450020BA
S11341A0A0450020D0000020084B1A68013A1A608C
S11341B01B68002B09D1064B1B78002B05D001226C
S11341C0044B1A70BFF35F8F62B670479C450020A2
S11341D0A0450020D0000020F0B54F464646C0B4AC
S11341E0041C85B000285CD0006800F061FE0E2538
S11341F0002314306D44C0B22B80A7696669FFF7B1
S113420093FF1023011C0093381C2A1C002300F088
S113421067FD2268D369002BFCD12B889381E26867
S1134220236913431D22A256013228D0C025AD02B2
S11342301D431C23E356013319D0A268FF2A1BD067
S1134240294B15431E43002C25D02268D369002B2B
S1134250FCD15560002C18D02268D369002BFCD106
S11342600020166005B00CBC90469946F0BD1F4B6B
S1134270A2681D40FF2AE3D11D4B1E43E3E71D4DF9
S11342801D4080235B021D43D3E71B481B493F228B
S113429000F08EFCE0E7184818493F2200F088FC43
S11342A0D3E7154B154F181C391C9C22984600F077
S11342B07FFC206800F0FCFD0E25A36914306D44DA
S11342C0C0B299462C806669FFF72EFF1023011CAB
S11342D000932A1C4846002300F002FD4046391C86
S11342E03F2200F065FC94E704000041FFFFFEFF5D
S11342F004000040FFFFFDFFC0EB0000C4EB000022
S113430070B5051C86B000283CD01C201D2100235C
S113431028566956029303930493059301F01EF8FB
S11343200024061C1C202B191856311C01F0A6F879
S1134330A30002AA0134D050042CF3D1039B002023
S11343400193013B022B02D8114A9B0098581E226C
S1134350AB5E013308D0029B002B03D1049B019375
S1134360022B08D006B070BD029B022BFAD1802329
S11343705B021843F6E7059B032BF3D180239B02D2
S11343801843EFE703480449712200F011FCBCE72D
S1134390B4EB0000C0EB0000C4EB000010B5041E39
S11343A00BD0FF23A3600023E360236196239B01CA
S11343B0A36188235B03636110BD03480349E122C1
S11343C000F0F6FBEDE7C046C0EB0000C4EB0000D4
S11343D0F0B54E4645465746E0B4041C84B00E1C66
S11343E0151C002800D19DE0604F3B78002B00D1C4
S11343F083E0201CFFF7D2FFFF232677A377E37720
S11344006577201CFFF77CFF291C071C301C00F07B
S1134410A5FF431C17D00F2505400120291C40424D
S113442001F04EF8061C021C2060002C6AD0D369EF
S1134430002BFCD1022113688B43136001222368F3
S11344401868024205D004B01CBC90469946A246A6
S1134450F0BD1B6819408846F5D1A81C8240444928
S11344600B6A1A430A62424602AB1A701423994635
S1134470A94402A94846FFF74BFE4846FFF70AFE47
S11344800021002000F0F4FC6761201CFFF7A4FE6B
S1134490424602AB5A719A71DA712023271C9A465C
S11344A01C37A2440023FB56994601330FD04846DB
S11344B0291C00F0BFFF02ABC0B21871FF2806D060
S11344C06A464B46D371D07903A9FFF717FD01372C
S11344D05745E7D1274B9E4230D0002C28D0236883
S11344E0DA69002AFCD1002C31D0DA69002AFCD127
S11344F0196802320A431A60A5E7FFF72BFE01236D
S11345003B7076E71C4B562299461C4B484698460E
S1134510191C00F04DFB3F224846414600F048FB81
S1134520226884E714481549ED2200F041FB5BE75B
S1134530114812493F2200F03BFBD0E70122104B07
S1134540211C1A600F48473205F08FFAC5E70A4E5E
S11345500A4D301C291C4A3200F02AFB301C291C4D
S11345603F2200F025FB2368BFE7C04698440020A3
S11345700004004000080042C0EB0000C4EB00004F
S1134580A445002040460020F0B54746041C80B4F2
S11345900E1C151C002820D0184B19602268184BDB
S11345A09A4218D00DDC174901238A4203D01649D8
S11345B001338A420DD1154A9B009D5004BC90469C
S11345C0F0BD134904238A42F5D0124901338A42CB
S11345D0F1D00023EFE70323EDE70F4BB322984616
S11345E00E4F181C391C920000F0E2FA034B4046AF
S11345F0391C0B4A1E6000F0DBFACFE7C0450020EF
S113460000140042000C004200100042A8450020A3
S113461000180042001C0042C0EB0000C4EB000084
S11346206602000010B5041E04D02368187E4007FB
S1134630C00F10BD02480349034A00F0B9FAF4E779
S1134640C0EB0000C4EB00002303000010B5041EFF
S113465008D0201CFFF7E6FF0028FAD02368188D45
S113466080B210BD02480349034A00F0A1FAF0E702
S1134670C0EB0000C4EB00001103000010B5041EE1
S113468004D0012023681B7E184010BDCC220348AF
S11346900349920000F08CFAF3E7C046C0EB000037
S11346A0C4EB000038B5041C0D1C00280ED0ED0529
S11346B0ED0D201CFFF7E2FF0028FAD00222236848
S11346C01D8521680B7E1A42FCD038BD024803497F
S11346D0034A00F06DFAEAE7C0EB0000C4EB000007
S11346E01903000038B50023036043600B78041CF1
S11346F02F2B01D0201C38BD4B78002BFAD0481C3E
S113470020604B782F2B14D0002B15D0031C01E014
S1134710002A0CD05D1A013323601A782F2AF7D1AE
S1134720291C0133236001F023FB6060E2E7291CAC
S1134730F9E7031C0021F4E70021F4E7006870475F
S1134740436810B5002B07D0041C181C01F030FB83
S1134750012801D1606810BD0020FCE7406808B55D
S1134760002805D001F024FB43425841C0B208BDE3
S11347700020FCE7436810B5002B0AD0041C181C69
S113478001F016FB002804D16068002801D0043829
S113479010BD0020FCE7C0464068431E9841C0B2EB
S11347A07047C0467047C04610B5002808D014684A
S11347B05368002C05D0DA0705D45B10C018A04755
S11347C010BDDA07FCD55B10C01803681C59A0475C
S11347D0F6E7C04610B5041C01F063FD201C10BDB3
S11347E0F0B556465F464D46444691460022F0B425
S11347F0051C041C87B0039310AB9A56264B8A46BB
S1134800083308C59346281C0021402205F036F9D8
S11348100023221C0493059304A9483241C941C2D0
S11348201E4A22651E4A62651E4AA265221C48323F
S11348302366E46562661C4AA266BFF36F8FBFF30A
S11348404F8F8022E366A3500432A354043290466F
S113485041468C27803A625090265A46E351134BC6
S11348600092A351281C51464A46039B00F086FF40
S11348704346E259E158281C002301F077F8281C2C
S1134880A15901F027F9201C07B03CBC9046994679
S1134890A246AB46F0BDC04660EE00001FB504243E
S11348A07C440FCC98471FBDA947000040420F002D
S11348B070B50A4D2B6883420FD08823061DC1585A
S11348C00433C258041C0023301C01F04FF8902319
S11348D0301CE15801F0FEF82C6070BDC445002086
S11348E008B58823C1500433C2500022024B1A6019
S11348F0FFF7DEFF08BDC046C445002008B590237D
S11349000022C150024B1A60FFF7D2FF08BDC04617
S1134910C445002038B50D1C041CFFF7C9FF291C31
S1134920201D01F053F938BD08B500F0B5F808BDF5
S113493008B4024B9C46DC3808BC60472949000097
S113494008B500F0AFF808BD08B4024B9C46DC384B
S113495008BC60474149000038B5041C1D1C00F028
S113496043F8201C291CDC3000F0DAF8064B201C2C
S11349701A1C191C08322260DC222031A150543345
S11349800432A35038BDC04678EE000008B54B0091
S11349905918C90043181A1CB8325268A8331B6846
S11349A0002A06D0002B03D04118AC31181C9047C4
S11349B008BD002BFCD09847FAE7C04610B5002884
S11349C008D014685368002C05D0DA0705D45B10AE
S11349D0C018A04710BDDA07FCD55B10C0180368E7
S11349E01C59A047F6E7C046F0B5474680B4244BAF
S11349F082B003600025031C171C6A46041C009542
S1134A0001950833884603CA03C31E4B23611E4B1A
S1134A1063611E4BA361231C08332562E461636256
S1134A201B4BA362BFF36F8FBFF34F8F5C23261C16
S1134A30E56225646564A5656036E5540133E55493
S1134A40301C0021482205F019F8A8239622E550CD
S1134A501433E5500433E5501433E5509201043324
S1134A60E250301C41463A1CFFF7B2FC301C0949A5
S1134A70221CFFF789FD201C02B004BC9046F0BD47
S1134A80E0EE00001FB504247C440FCC98471FBD02
S1134A90BD4900008D49000008B56030FFF7D6FD20
S1134AA008BDC04610B50C1C6030FFF7FBFD201C90
S1134AB010BDC04600207047F8B58E18051C0F1CA9
S1134AC00C1EB44202D10AE0A64208D001342B687D
S1134AD0621E5B6A1178281C9847431CF4D1E01BC2
S1134AE0F8BDC046F8B58E18051C0F1C0C1EB44248
S1134AF005D10AE00134631E1870A64205D02B6864
S1134B00281C9B6A9847431CF4D1E01BF8BDC0469F
S1134B100020704700207047002070470020704735
S1134B2010B5041C84B001F045F90B4B01A81A1C04
S1134B303C33636000230832636122600749221C0E
S1134B4006F0A4FA064901A804F028FE6061FFF704
S1134B5075F8201C04B010BDE8EE0000A4EB0000C2
S1134B602CEF0000074B10B51A1C041C08323C3310
S1134B7002604360406904F04BFC201C01F02EF9F4
S1134B80201C10BDE8EE00000EB430B5041C82B049
S1134B9005AB20CB4069019304F0FAFC6069291C41
S1134BA0019A05F049F902B030BC08BC03B01847BB
S1134BB038B5051C0C1C131C291C0248221C00F0CF
S1134BC003F838BD30EF00000FB4012008B504F03D
S1134BD0B1FBC04638B50D1C041C00F08BFA6B1CED
S1134BE00ED00023E35601330BD0E3686268201C27
S1134BF001211A6000F0E6FA201C002100F0BAFA44
S1134C0038BD034803492822FFF7D2FFEDE7C04629
S1134C10ACE6000064EF000002E0834206D00C31F1
S1134C200023CB565A1CF8D1181C70474868FCE77F
S1134C30021C08B5531C03D10BE09A420AD00C3174
S1134C400023CB56581CF8D10448FFF7BDFF0120C0
S1134C50404208BD4868431CFBD1F5E704F000005E
S1134C60021C08B5531C03D10BE09A420AD00C3144
S1134C700023CB56581CF8D10448FFF7A5FF0120A8
S1134C80404208BD8868431CFBD1F5E724F00000CE
S1134C9038B5051C00F0BCFC041C00F0B9FC001B7A
S1134CA0A842FAD338BDC04608B5FA239B0058433E
S1134CB0FFF7EEFF08BDC04610B5490840230024A5
S1134CC0814202D2181C10BD1C1C631C091A9BB221
S1134CD08842F9D94023FF2CF4D814800023F1E74B
S1134CE0F0B556464D4644465F46F0B4041C251CB8
S1134CF087B010A80678402075438D4206D907B0C6
S1134D003CBC90469946A246AB46F0BD04920D1CAD
S1134D10221C002B3FD1301C002101F0C1FC0023D8
S1134D2083463F2101209C469A462E1C00270022E0
S1134D30002380460C1C24E04146A9400D1C41463A
S1134D40A140101C8946191C801859410B1C021CD7
S1134D50594600920193294203D040461043021C55
S1134D60019B9F420BD801D1964208D86146484620
S1134D70014350462843921BBB418C468246013C6A
S1134D8010D3202149426518D6D520210D1B414658
S1134D90E9400D1CD3E70024012B07D0049B00201D
S1134DA01C80ACE763465C42240CF7E74B0F1C1CE9
S1134DB0CB009846301C0023002101F071FC002335
S1134DC09C4620339B466346A14600900191039381
S1134DD06B461B7B00200593002300219C463F2249
S1134DE027E001249C40231C0127464697403E406F
S1134DF0041C0D1CB2464E4624184D413340564601
S1134E00201C291C334304D00121231C0B43181CF0
S1134E10291C019B8B420AD802D1009B834206D8ED
S1134E20009B019CC01AA14163463B439C46013A46
S1134E3009D320235B42D318D3D55B4601249B1AA4
S1134E40DC40231CD0E76146039A8B1A0749DB0830
S1134E508B4206D9131C01330393082BB8D140208D
S1134E604DE7059A54031C43A4B297E7FF1F0000C3
S1134E7030B50E4C83B02378051C002B06D00029D6
S1134E8004D1637883420FD01D200BE001A91320C5
S1134E900D70FFF73DF91320FFF7FCF80123002004
S1134EA06570237003B030BD0020FBE7C8450020C7
S1134EB070B586B06946094B6A4670CB70C170CB39
S1134EC070C1002399005158814205D00133062B4B
S1134ED0F8D1002006B070BDD8B2FBE754F2000050
S1134EE010B508282CD81B4B80001B589F468020E7
S1134EF0000210BD184B5869FBE7184B186A184B91
S1134F008005800FC340181CF3E70220124C23686D
S1134F101840EED010221149CB681A42FCD0236805
S1134F205B070FD40F48E4E70B4B1869E1E7502304
S1134F300A4A0020D35C5B07DBD5074BD868D8E767
S1134F400020D6E70020FFF7EFF8A3681B041B0C32
S1134F505843CEE76CF20000CC4500200008004026
S1134F6000127A00006CDC0210B5082841D8224BEC
S1134F7080001B589F46002010BD02231F4A0020BA
S1134F8091690B439361F7E702231C4A0020918A3D
S1134F900B439382F0E70223184A0020116A0B4363
S1134FA01362E9E702231020154C2268134323609F
S1134FB02268144B1340114A9384D3680F49184252
S1134FC0FBD0A3680020CB6263688B6223689BB22A
S1134FD08B84D1E7442202230849885C03438B5421
S1134FE00020C9E70223054A0020118A0B431382DB
S1134FF0C2E71720C0E7C04690F200000008004056
S1135000CC4500207FFF0000F0B54746C2221E2198
S113501080B4314BD2009A60304A0024536884B083
S11350208B435360012301AD2B70E0B2291C013482
S1135030FFF76EF8252CF8D1294B274C1B68A16982
S1135040DB045B0E1A04274B04260B40134308228F
S11350504027A361A369042033431343BB4378323D
S113506090461343E022D20013431F4A1340A36126
S1135070FFF77AFF4246236A0620BB4313431B4AC9
S113508013402362FFF770FF0024FEF74DFF202337
S1135090291C02206B606C702C726C722E70FEF7EF
S11350A055FF0220FEF79CFF114B291C1C725C72F9
S11350B09C72DC72012300206B6005332B706C70D2
S11350C02C726C72FEF742FF0020FEF789FF04B0D9
S11350D004BC9046F0BDC0460008004000400041BA
S11350E024608000FFFF80FFFFEFFFFFFFFCFFFF56
S11350F00004004070B5051C82B00C1C4B1C28D069
S1135100C8B200292CDB184B46099C46F6016644BC
S11351102C70E217D20EA3181F241C40A41A0122DB
S1135120131C64B2A3406B60002301A92B72AB7201
S11351306A720B708B704A7000F06AFE331C143371
S1135140EB6004332B61103608336B61AE6102B03F
S113515070BD064806491F22FFF72AFD2C70F6E7AA
S11351602C700026D5E7C04600440041B4F200008C
S1135170C8F2000030B5041C007883B043B20D1CA3
S1135180013313D0A37A01A90B70237A65725A1ED6
S113519093418B70012D03D0002D01D0022D00D13D
S11351A04D70C0B200F034FE03B030BD0348044972
S11351B03622FFF7FDFC2078E4E7C046ACE60000A9
S11351C0C8F2000030B5041C007883B043B20D1C53
S11351D0013313D0637A01A94B70237AA5725A1E46
S11351E093418B70012D03D0002D01D0022D00D1ED
S11351F00D70C0B200F00CFE03B030BD034804498A
S11352004C22FFF7D5FC2078E4E7C046ACE600006A
S1135210C8F20000F0B5454657464E46E0B488460D
S113522082B0051C431C62D0C417E20E1F24012760
S113523083181C40A41A64B2A740C6B2BA467509C2
S1135240F3093ED1374BED019C466544002D62D0F5
S1135250281C1F233340C21840321278012194467F
S113526067468022394236D101A90A7002222C19DC
S1135270403423781A4210D050462B68034034D16E
S11352804B7023785B070AD52B6942460023CB7009
S1135290012A09D143468B700AE001234B70002395
S11352A04246CB70012AF5D04246022AF2D08B70D6
S11352B0301CFEF723FE02B01CBC90469946A24661
S11352C0F0BD194B9946194849462322FFF770FC53
S11352D000250020BDE75B08C31830331A78D2B22A
S11352E0314216D10F231A40BEE74A70D7E70E4B5E
S11352F00F4C9946191C201C5C22FFF759FC201CFA
S113530049461E22FFF754FC0023FF269A462C1C14
S1135310D9E71209A8E7054803492322FFF748FC07
S1135320002096E70044004130F3000098F30000A9
S1135330B4F2000010B5041C012904D0201C054956
S1135340FFF76AFC10BD0449FFF766FC431CF9D162
S1135350F4E7C046C8F0000044F0000038B50D1C66
S1135360431C1BD00021FFF7E5FF431C16D00F247C
S11353700440281C6B1C08D00021FFF7DBFF431CF2
S113538003D00F231840A04206D0631C03D0431C53
S113539002D00120404238BD201CFCE7281C6B1CB5
S11353A0F9D000210124FFF7C5FF6442431CE8D172
S11353B0F1E7C046F0B50F1C85B0161C1D1C041C7B
S11353C0431C03D00021FFF7B5FF041C0094381CD4
S11353D07B1C02D00021FFF7ADFF0190301C731C31
S11353E002D00021FFF7A6FF0290281C6B1C02D0FC
S11353F00021FFF79FFF03900120002340420F226A
S1135400611C04D0411C0BD0144084420FD10433DE
S1135410102B0AD06946CC58611CF8D0411CF3D13A
S1135420201C04331040102BF4D105B0F0BD012032
S11354304042FAE7F8B5431C04D00F2631400D1E54
S1135440052D02D901204042F8BD0A4F041C391C25
S1135450FFF7EEFB3040A84207D0074F201C391C51
S1135460FFF7E6FB0640AE42ECD1201C391CFFF7E7
S1135470F7FBE9E7C8F0000044F0000070B5431CF6
S113548004D00F2421400D1E052D02D901204042D5
S113549070BD0949061CFFF7CBFB231C0340AB423C
S11354A007D0301C0549FFF7C3FB231C0340AB4264
S11354B0ECD100092040EBE7C8F0000044F0000004
S11354C070B586B06A46084B684670CB70C270CB24
S11354D070C20F231940052903D90120404206B0A8
S11354E070BD89000858FAE7A0F30000032208B54C
S11354F0024B1B689A7300F083FC08BD88460020A9
S113550030B50125354B364C1D6023788FB0002B08
S11355105CD00023002201AC22746361A361227772
S11355202362636200202370A370A380A27123818D
S11355306270A272E2722273A2736273238563851E
S1135540A385FEF76BFD274900F0B0FE002832D09A
S11355500023012807D040080133012822D00B2B57
S1135560F9D1E023DB00A3800823A370073B637019
S113557000231D4DA3621D49013B221C281CE3622C
S113558000F0D2FC1A490222281C00F051FC7F21B1
S11355902A68D37B8B43FCD1118802330B431380DD
S11355A00FB030BD082BDCD8062B13D8042B08D938
S11355B0A023DB00D7E70F480F495722FFF7F8FA7B
S11355C00023E0221B02D2001340CCE7FEF7C2FD09
S11355D025709EE7C023DB00C5E7C046E4450020F4
S11355E09844002040420F008846002000300042CA
S11355F0ED540000B8F30000CCF3000008B5034BF1
S11356001B68002B01D1FFF77BFF08BDE445002098
S113561008B5054B1B68002B01D1FFF771FF034848
S113562000F0D4FD08BDC046E445002088460020B3
S1135630F8B5061CFFF7ECFF301A21D4802780232D
S1135640114D3F03EF5011491320FEF751F9104C4F
S1135650206800F049FC1F220E4B00211B5C201C1B
S113566013401E3A9A4010232A60627E13436376E5
S1135670102322685373321C00F0BEFD2F60F8BD66
S113568000F0BEFBFBE7C04600E100E0D15E000095
S1135690884600203CF400001021064B1A68117360
S11356A05A7E8A4380215A768023034A0903D150C3
S11356B07047C0468846002000E100E01022054BF8
S11356C080211B6809039A731A73C023024A5B0082
S11356D0D15070478846002000E100E0F8B5041E70
S11356E03ED02068FFF7E4FB2379071C012B2AD066
S11356F0012500230520E3181856431C0FD0391C3C
S1135700FFF7BCFE431C0AD0C0260005B6030640C2
S1135710052065192856431C07D1301CF8BD052007
S1135720651928560026431CF7D0391CFFF7A6FE3E
S1135730431CF2D0002809D0C023013800049B0286
S113574018400643E9E700250123D3E70720391C65
S11357502056FFF793FE032808D000200643DCE719
S113576004480549B122FFF723FABAE7C0208002B2
S11357700643D2E7C0EB000040F40000F0B5444615
S11357805F464D465646F0B485B098460EAB1B783E
S1135790041C5BB20D1C93460093002800D1C8E0A2
S11357A04346013300D1B8E000236A4E02AA538075
S11357B03378002B32D059464246009B281CFFF711
S11357C0F9FD8146012049464042FFF779FE2060F9
S11357D0002C00D1A7E0604F604E03E02268538B99
S11357E0DB0B0AD0002CF9D14422381C311CFFF702
S11357F0DFF92268538BDB0BF4D1022113688B434E
S1135800136023681E6801239A461E400BD005B01E
S11358103CBC90469946A246AB46F0BDFEF79AFCC6
S113582001233370C7E74B46504602339840031CAC
S11358304B490A6A13430B6202AB1E704B46143386
S1135840DBB21F1C181C02A90193FEF761FC381C73
S1135850FEF720FC00210020FFF70AFB0C2322683E
S113586003AF11680B4313605346237180233B70CD
S11358705346BB705B46A3714346E3716B461B788A
S113588065712372092398466DB27E70FE70A04440
S1135890A61D6B1C0BD0281C4946FFF7CBFDC0B2DC
S11358A03870FF2803D0E8B2391CFEF727FB4645C1
S11358B006D0357801366DB26B1CECD14645F8D173
S11358C00198FEF731FC02AB011C9A1C2548FFF736
S11358D0F3F900289BD102AB9B782268201C137338
S11358E0FFF7FCFE802122688902136818431060C8
S11358F0226853680B435360002C25D0164E174D75
S113590003E02268538BDB0B19D0002CF9D1301C37
S1135910291C4422FFF74CF9F3E713480F49F522F9
S1135920FFF746F940E70C480C495E22FFF740F9BF
S113593051E709480949F422FFF73AF930E71168B9
S113594002330B43136062E7034804495222FFF712
S11359502FF9D3E798440020C0EB000040F4000086
S113596000040040A0860100A8F40000F8B54F46EA
S11359704646041CC0B48846151C9946002800D12C
S11359808AE04F4F4F4E06E02268538BDB0BDB035C
S11359909BB2002B0DD0002CF6D14422381C311CB4
S11359A0FFF706F92268538BDB0BDB039BB2002B5A
S11359B0F1D102201168814311604A46002A60D067
S11359C01C21206802688A4314390A430260226851
S11359D02371516840330B43536000239946271CBD
S11359E0661D093700203056431C02D04946FFF794
S11359F011FC0136BE42F5D12368201C1E68324BCF
S1135A001E40FFF76BFE4246236806431E60216872
S1135A100123082A00DC002307204A68034082434C
S1135A2013434B6001231A1C20682A40066811079F
S1135A30264A6D0832400A43026021681D406B0704
S1135A40234A0D6815401D430D60002C32D01C4EB6
S1135A501C4D03E02268538BDB0B0AD0002CF9D1D8
S1135A604422301C291CFFF7A3F82268538BDB0B5C
S1135A70F4D1116802330B4313600CBC9046994671
S1135A80F8BD1C2221680B689343103A13430B6042
S1135A90012323719946A2E79622094F094E381C27
S1135AA0311CFF32FFF784F8381C311C5E22FFF7EB
S1135AB07FF866E7024803495222FFF779F8C6E700
S1135AC0C0EB000040F40000FFFFCCFFFFFFFFEF3E
S1135AD0FFFFFFDFF0B583B000236A46041C0D1CF2
S1135AE0D380002853D0374F374E03E02268538BBE
S1135AF0DB0B0AD0002CF9D14422381C311CFFF7EF
S1135B0057F82268538BDB0BF4D1022113688B43C3
S1135B1013602068FFF7CCF91430C0B2FEF704FB21
S1135B206B46011C9A1D281CFFF7C6F800281DD1DE
S1135B306B4622689B791373002C36D0214E224D7C
S1135B4003E02268538BDB0B0AD0002CF9D14422EA
S1135B50301C291CFFF72CF82268538BDB0BF4D183
S1135B60116802330B43136003B0F0BD002C22D044
S1135B70144E154D03E02268538BDB0BF0D0002C40
S1135B80F9D1301C291C4422FFF712F8F3E7D02284
S1135B900C4F0D4E381C311CFF32FFF709F8381C2E
S1135BA0311C5E22FFF704F89DE70648064952229D
S1135BB0FEF7FEFFC2E7034803495222FEF7F8FF4F
S1135BC0D6E7C046C0EB000040F40000F0B54746FD
S1135BD0041C80B40E1C002852D0637A052B45D0D7
S1135BE03A4B3B4F9846012503E023681A7E154241
S1135BF00AD1002CF9D173224046391CFEF7D8FF94
S1135C0023681A7E1542F4D0002C43D01A7ED207A2
S1135C1003D5F605F60D9E6223685B689B0325D5C4
S1135C202A4F2B4E042503E023681A7E15420AD11D
S1135C30002CF9D17C22381C311CFEF7B9FF2368F3
S1135C401A7E1542F4D0002C32D00422197E002092
S1135C500A420CD0598B0A420CD107215A680A40D7
S1135C60012A13D0FF209B6A184000E0002004BCE6
S1135C709046F0BD598B0A4392B25A832368ECE7ED
S1135C8012481349134AFEF793FFA6E7986AC00522
S1135C90C00DECE70D4F0E4D381C291C8522FEF774
S1135CA087FF381C291C7322FEF782FF2368ADE7A7
S1135CB0064E074D301C291C9622FEF779FF301C36
S1135CC0291C7C22FEF774FF2368BEE7C0EB0000AA
S1135CD040F40000120200000A4B0833036083689A
S1135CE0002B0AD0084B1A68824201D106E01A1C24
